:1000000000308A001A280000223084008313000880
:10001000031917280630F800F701F70B0D28F80B25
:100020000C287B30F700F70B1328800B0A288A1165
:100030000A12482803081F398300A001A101831672
:100040001F149F141F159F1107309C008313061562
:100050008312061D2D280130A000831686158312F9
:10006000861D34280130A100200B3A28061483167F
:1000700006108312210B40288614831686108312E3
:10008000831606168312061E52286430A200042826
:10009000A001A10106108316061083128610831694
:0A00A00086108312831627286300E0
:02400E00723FFF
:00000001FF
;PIC16F877A
;CRC=7BF6  CREATED="21-Nov-22 16:24"
